{
  "contractName": "ExerciceSolution",
  "abi": [
    {
      "inputs": [
        {
          "internalType": "contract IERC20",
          "name": "_DAI",
          "type": "address"
        },
        {
          "internalType": "contract IERC20",
          "name": "_USDC",
          "type": "address"
        }
      ],
      "stateMutability": "nonpayable",
      "type": "constructor"
    },
    {
      "inputs": [],
      "name": "DAI",
      "outputs": [
        {
          "internalType": "contract IERC20",
          "name": "",
          "type": "address"
        }
      ],
      "stateMutability": "view",
      "type": "function",
      "constant": true
    },
    {
      "inputs": [],
      "name": "USDC",
      "outputs": [
        {
          "internalType": "contract IERC20",
          "name": "",
          "type": "address"
        }
      ],
      "stateMutability": "view",
      "type": "function",
      "constant": true
    },
    {
      "inputs": [],
      "name": "depositSomeTokens",
      "outputs": [],
      "stateMutability": "nonpayable",
      "type": "function"
    },
    {
      "inputs": [],
      "name": "withdrawSomeTokens",
      "outputs": [],
      "stateMutability": "nonpayable",
      "type": "function"
    },
    {
      "inputs": [],
      "name": "borrowSomeTokens",
      "outputs": [],
      "stateMutability": "nonpayable",
      "type": "function"
    },
    {
      "inputs": [],
      "name": "repaySomeTokens",
      "outputs": [],
      "stateMutability": "nonpayable",
      "type": "function"
    },
    {
      "inputs": [],
      "name": "doAFlashLoan",
      "outputs": [],
      "stateMutability": "nonpayable",
      "type": "function"
    },
    {
      "inputs": [],
      "name": "repayFlashLoan",
      "outputs": [],
      "stateMutability": "nonpayable",
      "type": "function"
    }
  ],
  "bytecode": "0x608060405234801561001057600080fd5b506040516102ca3803806102ca8339818101604052604081101561003357600080fd5b810190808051906020019092919080519060200190929190505050816000806101000a81548173ffffffffffffffffffffffffffffffffffffffff021916908373ffffffffffffffffffffffffffffffffffffffff16021790555080600160006101000a81548173ffffffffffffffffffffffffffffffffffffffff021916908373ffffffffffffffffffffffffffffffffffffffff16021790555050506101ea806100e06000396000f3fe608060405234801561001057600080fd5b50600436106100885760003560e01c8063db50609f1161005b578063db50609f146100f5578063e0bab4c4146100ff578063f6b96bae14610149578063fc6669b61461015357610088565b80631a231a711461008d5780634b5bd34f1461009757806389a30271146100a1578063d871f594146100eb575b600080fd5b61009561015d565b005b61009f61015f565b005b6100a9610161565b604051808273ffffffffffffffffffffffffffffffffffffffff1673ffffffffffffffffffffffffffffffffffffffff16815260200191505060405180910390f35b6100f3610187565b005b6100fd610189565b005b61010761018b565b604051808273ffffffffffffffffffffffffffffffffffffffff1673ffffffffffffffffffffffffffffffffffffffff16815260200191505060405180910390f35b6101516101b0565b005b61015b6101b2565b005b565b565b600160009054906101000a900473ffffffffffffffffffffffffffffffffffffffff1681565b565b565b6000809054906101000a900473ffffffffffffffffffffffffffffffffffffffff1681565b565b56fea2646970667358221220eef362b8cc1d241a339a2b381bd982a91d939e2777565b5c9c25f8817742dd5264736f6c63430006020033",
  "source": "pragma solidity ^0.6.0;\r\n\r\nimport \"./IExerciceSolution.sol\";\r\nimport \"@openzeppelin/contracts/token/ERC20/IERC20.sol\";\r\n\r\ncontract ExerciceSolution {\r\n\r\n    IERC20 public DAI;\r\n    IERC20 public USDC;\r\n\r\n    constructor(IERC20 _DAI, IERC20 _USDC) public {\r\n        DAI = _DAI;\r\n        USDC = _USDC;\r\n\t}\r\n\r\n    function depositSomeTokens() public {\r\n\r\n    }\r\n\r\n    function withdrawSomeTokens() public {\r\n        \r\n    }\r\n\r\n\tfunction borrowSomeTokens() public {\r\n        \r\n    }\r\n\r\n\tfunction repaySomeTokens() public {\r\n        \r\n    }\r\n\r\n\tfunction doAFlashLoan() public {\r\n        \r\n    }\r\n\r\n\tfunction repayFlashLoan() public {\r\n        \r\n    }\r\n\r\n}",
  "sourcePath": "C:\\Users\\laith\\OneDrive\\Bureau\\Informatique\\GitHub\\_SHARED\\lending-101\\contracts\\ExerciceSolution.sol",
  "compiler": {
    "name": "solc",
    "version": "0.6.2+commit.bacdbe57.Emscripten.clang"
  },
  "schemaVersion": "3.4.3",
  "updatedAt": "2022-01-16T19:15:59.007Z",
  "networkType": "ethereum",
  "devdoc": {
    "methods": {}
  },
  "userdoc": {
    "methods": {}
  }
}