{
  "contractName": "FlashLoan",
  "abi": [
    {
      "inputs": [
        {
          "internalType": "contract ILendingPoolAddressesProvider",
          "name": "_addressProvider",
          "type": "address"
        },
        {
          "internalType": "contract ILendingPool",
          "name": "_LENDING_POOL",
          "type": "address"
        }
      ],
      "stateMutability": "nonpayable",
      "type": "constructor"
    },
    {
      "inputs": [],
      "name": "LENDING_POOL",
      "outputs": [
        {
          "internalType": "contract ILendingPool",
          "name": "",
          "type": "address"
        }
      ],
      "stateMutability": "view",
      "type": "function"
    },
    {
      "inputs": [
        {
          "internalType": "address",
          "name": "assetsAddress",
          "type": "address"
        }
      ],
      "name": "flashLoanCall",
      "outputs": [],
      "stateMutability": "nonpayable",
      "type": "function"
    },
    {
      "inputs": [
        {
          "internalType": "address[]",
          "name": "assets",
          "type": "address[]"
        },
        {
          "internalType": "uint256[]",
          "name": "amounts",
          "type": "uint256[]"
        },
        {
          "internalType": "uint256[]",
          "name": "premiums",
          "type": "uint256[]"
        },
        {
          "internalType": "address",
          "name": "initiator",
          "type": "address"
        },
        {
          "internalType": "bytes",
          "name": "params",
          "type": "bytes"
        }
      ],
      "name": "executeOperation",
      "outputs": [
        {
          "internalType": "bool",
          "name": "",
          "type": "bool"
        }
      ],
      "stateMutability": "nonpayable",
      "type": "function"
    }
  ],
  "bytecode": "0x608060405234801561001057600080fd5b506040516109123803806109128339818101604052604081101561003357600080fd5b810190808051906020019092919080519060200190929190505050806000806101000a81548173ffffffffffffffffffffffffffffffffffffffff021916908373ffffffffffffffffffffffffffffffffffffffff16021790555050506108738061009f6000396000f3fe608060405234801561001057600080fd5b50600436106100415760003560e01c8063920f5c8414610046578063b4dcfc77146101f6578063bc6799f914610240575b600080fd5b6101dc600480360360a081101561005c57600080fd5b810190808035906020019064010000000081111561007957600080fd5b82018360208201111561008b57600080fd5b803590602001918460208302840111640100000000831117156100ad57600080fd5b9091929391929390803590602001906401000000008111156100ce57600080fd5b8201836020820111156100e057600080fd5b8035906020019184602083028401116401000000008311171561010257600080fd5b90919293919293908035906020019064010000000081111561012357600080fd5b82018360208201111561013557600080fd5b8035906020019184602083028401116401000000008311171561015757600080fd5b9091929391929390803573ffffffffffffffffffffffffffffffffffffffff1690602001909291908035906020019064010000000081111561019857600080fd5b8201836020820111156101aa57600080fd5b803590602001918460018302840111640100000000831117156101cc57600080fd5b9091929391929390505050610284565b604051808215151515815260200191505060405180910390f35b6101fe6103fe565b604051808273ffffffffffffffffffffffffffffffffffffffff1673ffffffffffffffffffffffffffffffffffffffff16815260200191505060405180910390f35b6102826004803603602081101561025657600080fd5b81019080803573ffffffffffffffffffffffffffffffffffffffff169060200190929190505050610423565b005b600080600090505b8a8a90508110156103ec5760006102d08888848181106102a857fe5b905060200201358b8b858181106102bb57fe5b905060200201356107b590919063ffffffff16565b90508b8b838181106102de57fe5b9050602002013573ffffffffffffffffffffffffffffffffffffffff1673ffffffffffffffffffffffffffffffffffffffff1663095ea7b36000809054906101000a900473ffffffffffffffffffffffffffffffffffffffff16836040518363ffffffff1660e01b8152600401808373ffffffffffffffffffffffffffffffffffffffff1673ffffffffffffffffffffffffffffffffffffffff16815260200182815260200192505050602060405180830381600087803b1580156103a257600080fd5b505af11580156103b6573d6000803e3d6000fd5b505050506040513d60208110156103cc57600080fd5b81019080805190602001909291905050505050808060010191505061028c565b50600190509998505050505050505050565b6000809054906101000a900473ffffffffffffffffffffffffffffffffffffffff1681565b60003090506060600160405190808252806020026020018201604052801561045a5781602001602082028038833980820191505090505b509050828160008151811061046b57fe5b602002602001019073ffffffffffffffffffffffffffffffffffffffff16908173ffffffffffffffffffffffffffffffffffffffff1681525050606081516040519080825280602002602001820160405280156104d75781602001602082028038833980820191505090505b50905064e8d4a51000816000815181106104ed57fe5b6020026020010181815250506060825160405190808252806020026020018201604052801561052b5781602001602082028038833980820191505090505b50905060008160008151811061053d57fe5b6020026020010181815250506000309050606060405180602001604052806000815250905060008090506000809054906101000a900473ffffffffffffffffffffffffffffffffffffffff1673ffffffffffffffffffffffffffffffffffffffff1663ab9c4b5d888888888888886040518863ffffffff1660e01b8152600401808873ffffffffffffffffffffffffffffffffffffffff1673ffffffffffffffffffffffffffffffffffffffff1681526020018060200180602001806020018773ffffffffffffffffffffffffffffffffffffffff1673ffffffffffffffffffffffffffffffffffffffff168152602001806020018661ffff1661ffff16815260200185810385528b818151815260200191508051906020019060200280838360005b8381101561067b578082015181840152602081019050610660565b5050505090500185810384528a818151815260200191508051906020019060200280838360005b838110156106bd5780820151818401526020810190506106a2565b50505050905001858103835289818151815260200191508051906020019060200280838360005b838110156106ff5780820151818401526020810190506106e4565b50505050905001858103825287818151815260200191508051906020019080838360005b8381101561073e578082015181840152602081019050610723565b50505050905090810190601f16801561076b5780820380516001836020036101000a031916815260200191505b509b505050505050505050505050600060405180830381600087803b15801561079357600080fd5b505af11580156107a7573d6000803e3d6000fd5b505050505050505050505050565b600080828401905083811015610833576040517f08c379a000000000000000000000000000000000000000000000000000000000815260040180806020018281038252601b8152602001807f536166654d6174683a206164646974696f6e206f766572666c6f77000000000081525060200191505060405180910390fd5b809150509291505056fea264697066735822122012b3cfe68129bb97a5f023079d92a5e216d49b84244d20426df31b5f69efb4f764736f6c63430006020033",
  "source": "pragma solidity ^0.6.0;\r\n\r\n// import \"./utils/FlashLoanReceiverBase.sol\";\r\nimport \"./utils/ILendingPool.sol\";\r\nimport \"@openzeppelin/contracts/token/ERC20/IERC20.sol\";\r\n\r\n\r\nimport \"@openzeppelin/contracts/math/SafeMath.sol\";\r\n\r\ncontract FlashLoan {\r\n    using SafeMath for uint;\r\n\r\n    ILendingPool public LENDING_POOL;\r\n\r\n    constructor(ILendingPoolAddressesProvider _addressProvider, ILendingPool _LENDING_POOL) public {\r\n        LENDING_POOL = ILendingPool(_LENDING_POOL);\r\n    }\r\n\r\n\tfunction flashLoanCall(address assetsAddress) public {\r\n        address receiverAddress = address(this);\r\n\r\n        address[] memory assets = new address[](1);\r\n        assets[0] = assetsAddress;\r\n\r\n        uint256[] memory amounts = new uint256[](assets.length);\r\n        amounts[0] = 1000000 * 1000000;\r\n\r\n        // 0 = no debt, 1 = stable, 2 = variable\r\n        uint256[] memory modes = new uint256[](assets.length);\r\n        modes[0] = 0;\r\n\r\n        address onBehalfOf = address(this);\r\n        bytes memory params = \"\";\r\n        uint16 referralCode = 0;\r\n\r\n        LENDING_POOL.flashLoan(\r\n            receiverAddress,\r\n            assets,\r\n            amounts,\r\n            modes,\r\n            onBehalfOf,\r\n            params,\r\n            referralCode\r\n        );\r\n    }\r\n\r\n    /**\r\n        This function is called after your contract has received the flash loaned amount\r\n     */\r\n    function executeOperation(\r\n        address[] calldata assets,\r\n        uint256[] calldata amounts,\r\n        uint256[] calldata premiums,\r\n        address initiator,\r\n        bytes calldata params\r\n    )\r\n        external\r\n        returns (bool)\r\n    {\r\n\r\n        //\r\n        // This contract now has the funds requested.\r\n        // Your logic goes here.\r\n        //\r\n        \r\n        // At the end of your logic above, this contract owes\r\n        // the flashloaned amounts + premiums.\r\n        // Therefore ensure your contract has enough to repay\r\n        // these amounts.\r\n        \r\n        // Approve the LendingPool contract allowance to *pull* the owed amount\r\n        for (uint i = 0; i < assets.length; i++) {\r\n            uint amountOwing = amounts[i].add(premiums[i]);\r\n            IERC20(assets[i]).approve(address(LENDING_POOL), amountOwing);\r\n        }\r\n        \r\n        return true;\r\n    }\r\n\r\n}",
  "sourcePath": "C:\\Users\\laith\\OneDrive\\Bureau\\Informatique\\GitHub\\_SHARED\\lending-101\\contracts\\FlashLoan.sol",
  "compiler": {
    "name": "solc",
    "version": "0.6.2+commit.bacdbe57.Emscripten.clang"
  },
  "schemaVersion": "3.4.3",
  "updatedAt": "2022-02-20T12:57:35.737Z",
  "devdoc": {
    "methods": {}
  },
  "userdoc": {
    "methods": {
      "executeOperation(address[],uint256[],uint256[],address,bytes)": {
        "notice": "This function is called after your contract has received the flash loaned amount"
      }
    }
  }
}